:020000040100F9
:1000000090200020A9020001AD020001AF02000112
:10001000B1020001B3020001B502000100000000BE
:10002000000000000000000000000000B702000116
:100030000000000000000000B9020001BB02000146
:1000400000000000000000000000000000000000B0
:1000500000000000000000000000000000000000A0
:100060000000000000000000000000000000000090
:100070000000000000000000000000000000000080
:100080000000000000000000000000000000000070
:100090000000000000000000000000000000000060
:1000A0000000000000000000000000000000000050
:1000B0000000000000000000000000000000000040
:1000C000BD020001BF020001C1020001C302000124
:1000D000C5020001C7020001C9020001CB020001F4
:1000E000CD020001CF020001D1020001D3020001C4
:1000F000D5020001D7020001D9020001DB02000194
:100100000000000000000000E1020001E302000125
:10011000E5020001E7020001E9020001EB02000133
:10012000ED020001EF020001F1020001F302000103
:10013000F5020001F7020001F9020001FB020001D3
:10014000FD020001FF0200010103000103030001A1
:100150000503000107030001090300010B0300016F
:100160000D0300010F03000111030001130300013F
:100170001503000117030001190300011B0300010F
:100180001D0300011F0300012103000123030001DF
:100190002503000127030001290300012B030001AF
:1001A000000000002D030001000000002F030001EB
:1001B00000000000790B0001990B000135030001DC
:1001C00037030001000000000000000039030001B7
:1001D000000000000000000000000000000000001F
:1001E0003B030001000000000000000000000000D0
:1001F000B90B00013F0300010000000000000000F7
:100200000000000041030001430300010000000062
:1002100000000000450300014703000149030001FD
:10022000550A00014D0300014F03000100F002F8E0
:1002300000F02BF80AA090E8000C82448344AAF155
:100240000107DA4501D100F020F8AFF2090EBAE853
:100250000F0013F0010F18BFFB1A43F001031847FA
:100260009C120000AC120000103A24BF78C878C17C
:10027000FAD8520724BF30C830C144BF04680C60AC
:1002800070471FB51FBD10B510BD00F074F81146C2
:10029000FFF7F7FF01F021F900F092F803B4FFF740
:1002A000F2FF03BC00F09AF82C480047FEE7FEE797
:1002B000FEE7FEE7FEE7FEE7FEE7FEE7FEE7FEE716
:1002C000FEE7FEE7FEE7FEE7FEE7FEE7FEE7FEE706
:1002D000FEE7FEE7FEE7FEE7FEE7FEE7FEE7FEE7F6
:1002E000FEE7FEE7FEE7FEE7FEE7FEE7FEE7FEE7E6
:1002F000FEE7FEE7FEE7FEE7FEE7FEE7FEE7FEE7D6
:10030000FEE7FEE7FEE7FEE7FEE7FEE7FEE7FEE7C5
:10031000FEE7FEE7FEE7FEE7FEE7FEE7FEE7FEE7B5
:10032000FEE7FEE7FEE7FEE7FEE7FEE7FEE7FEE7A5
:10033000FEE7FEE7FEE7FEE7FEE7FEE7FEE7FEE795
:10034000FEE7FEE7FEE7FEE7FEE7FEE7FEE7FEE785
:1003500003480449044A054B704700002D02000180
:10036000900000209020002090100020901000208D
:10037000704770477047754600F02CF8AE46050090
:100380006946534620F00700854618B020B5FFF7B0
:10039000DFFFBDE820404FF000064FF000074FF0B0
:1003A00000084FF0000B21F00701AC46ACE8C00993
:1003B000ACE8C009ACE8C009ACE8C0098D4670479C
:1003C00010B50446AFF300802046BDE81040FFF7AB
:1003D00065BF0000004870472C000020014918202C
:1003E000ABBEFEE726000200704700002DE9F04199
:1003F000D1F800C04FEA4C0CD1F804804CEAC80C8C
:10040000D1F808804CEA081CD1F80C804CEA481C52
:10041000D1F810804CEAC81CD1F814804CEA0822AC
:100420006FF04105D1E906C84CEAC80CD1F820802C
:100430004CEA083CB1F824804CEA0853EE1191F8DC
:1004400028C091F829804CEA480C91F82A804CEA9F
:10045000880C91F82B804CEAC80C91F82C804CEA5F
:10046000081CD1F830804CEA881CD1F834804CEA62
:10047000082CB1F838804CEA084C91F83C804CEAE2
:100480000864114FD0F804C02CEA050C4CEA020CA9
:10049000C0F804C0D0F808C02CEA060C4CEA030CE3
:1004A000C0F808C0D0F80CC02CEA070C4CEA040CC9
:1004B000C0F80CC0D1F840C0C0F838C1D1F844C071
:1004C000C0F83CC1BDE8F081DFFFFF0110B500209E
:1004D000094908600BE01721084800F0A7F8074811
:1004E00000F0ACF804480068401C0349086002486A
:1004F00000680328EFD910BD0800002000B00A40B2
:1005000010B50020094908600BE00621084800F0FA
:100510008DF8074800F092F804480068401C034931
:100520000860024800680328EFD910BD08000020C9
:1005300000B00A4030B599B00121080600F0D0F9AA
:100540004FF08044206940F400002061A013C4F8FB
:10055000C0018503E86840F40040E86029482A4962
:1005600008602A490860A014129000208DF84C0001
:100570008DF84E0012A9254800F03CFB684600F0BB
:1005800062F8002000900190029003900490059082
:100590000690C820079008900020099001208DF84F
:1005A000280000208DF829008DF82A008DF82B00F6
:1005B0008DF82C000C900D900E9001200F900020D3
:1005C0001090119069461048FFF710FF104811492C
:1005D0000860782000280DDB00BF00BF00F01F027C
:1005E000012191404209920002F1E022C2F800117B
:1005F00000BF00BF00BF0121034800F00DF819B093
:1006000030BD0000A1AA558500B00A400020084076
:100610004000800038B10A400A46416812B141F0FA
:10062000010101E021F00101416070470A460169C2
:1006300021F47C5141EA022101617047016941F0D6
:100640000101016170470021016041608160C1606A
:10065000016141618161C1610162416280F82810DC
:1006600080F8291080F82A1080F82B1080F82C10C0
:10067000016341638163C1630164416470470000A9
:1006800000B500F0B3F9024800880249C86000BD17
:100690000000002000C00A40F0B5024600260025F8
:1006A000002300240020C2F34115C2F3C313D40A6F
:1006B000022D02D16F07396E26E0032D03D14FF0D2
:1006C0008047796F20E0012B02D1144F39681BE07D
:1006D000022B03D1114F1437396815E0032B03D1D6
:1006E0000E4F283739680FE0012C02D10C4F3968C2
:1006F0000AE0022C03D10A4F1037396804E0032CBA
:1007000002D1074F2037396802F01F060127B74092
:100710000F400FB1012000E00020F0BD8800004034
:100720000C1100401348006840F480001249C1F8E1
:100730000C010846D0F81C0140F48000C1F81C01EF
:100740000846D0F82C0140F480000A4920310860A6
:1007500000204FF0804148608867084908600749D9
:10076000143108604906086548660320C860002007
:10077000086170470C110040001000408C000040E0
:10078000304A811A90422AD006DCB0B301284CD0FE
:10079000B0F1006F52D106E06FF07842891A10D0A4
:1007A00001294BD12AE04FF08041096D21F0C05161
:1007B0004FF0804211651146096D41F000611165ED
:1007C0003DE04FF08041096D21F0C0514FF0804273
:1007D00011651146096D41F0C05111652FE04FF0D0
:1007E0008041496E184A11404FF0804251661146CF
:1007F000496E41F00061516621E00DE04FF080410B
:10080000496E114A11404FF0804251661146496EBF
:1008100041F0C051516612E04FF08041096D21F066
:10082000C0514FF08042116509E04FF08041496EA0
:10083000054A11404FF08042516600E000BF00BF02
:100840007047000001000008FEFFFFE778B506468C
:1008500000200090542E15D100BF5420FFF71CFF3C
:1008600005460098401C00900098B0F5C06F01D27A
:10087000002DF2D05420FFF70FFF08B1012418E03B
:10088000002416E0742E14D100BF7420FFF704FF7B
:1008900005460098401C00900098B0F5C06F01D24A
:1008A000002DF2D07420FFF7F7FE08B1012400E01C
:1008B0000024204678BD4FF080414860704739B130
:1008C0004FF08042D26802434FF08043DA6006E086
:1008D0004FF08042D26882434FF08043DA60704725
:1008E00039B14FF08042126902434FF080431A61E0
:1008F00006E04FF08042126982434FF080431A6154
:100900007047000010B5094881070860FFF70AFF2B
:100910004FF00060FFF734FF00BF5420FFF796FF51
:100920000128FAD10220FFF7C6FF10BDA1AA558504
:1009300010B507480078012802D0022806D102E04D
:1009400000F0B6FB02E0FFF79BFE00BF00BF10BD4A
:100950001C00002070B51F4800881F49097800EB73
:10096000012085B2B5F54D7F26DB1C4800880328A1
:100970001CD100201A49C860FF211A4800F03FFD31
:10098000FF21184800F03BFDFF21164800F037FD1D
:10099000002405E00021134800F031FD601CC4B2C2
:1009A0000D2CF7DB00200D49088012E00B48008871
:1009B000401C0A4908800CE00B480088401C0A498A
:1009C000088008460088032803D1002008800349D6
:1009D000088070BD120000201400002016000020C6
:1009E00000C00A40009009401800002006484078E6
:1009F0000007000D054908800348807809880843EE
:100A000002490880704700001C0000200000002000
:100A10004FF08040036943F0C0630361094BC0F8A5
:100A2000C431C0F8C8310849084B0B6003234B6040
:100A3000C314CB60064A054B136003235360C314F1
:100A4000D36070473F1F010000C00A40A1AA55852E
:100A500000D00A4010B500BF3F48406900F00100D7
:100A60000028F9D03C4880693C4908600846007875
:100A70003B49088039480088C0F303203949088081
:100A800036480068C0F307403749088008460088A8
:100A900017282DD135480088032823D100BF802195
:100AA000334800F05CFC0128F9D12F480188304818
:100AB00000F0A5FC2A4801882D4800F0A0FC294838
:100AC00001882B4800F09BFC002405E00021284809
:100AD00000F095FC601CC4B20D2CF7DB002023490C
:100AE000088038E021480088401C2049088032E016
:100AF0001D48008806282ED11E480088032825D1CD
:100B0000FFF728FF00BF8021194800F028FC0128CA
:100B1000F9D115480188164800F071FC1048018889
:100B2000134800F06CFC0F480188114800F067FC86
:100B3000002405E000210E4800F061FC601CC4B2F6
:100B40000D2CF7DB00200B49088004E009480088E1
:100B5000401C0849088010BD00B00A400C0000206D
:100B600012000020140000201000002006000020C9
:100B7000009009400400002010B50221054800F053
:100B800090FB012805D10221024800F061FBFFF72C
:100B9000B7FC10BD00A0084010B50221054800F0C8
:100BA00080FB012805D10221024800F051FBFFF72C
:100BB0008DFC10BD00B0084010B500BF40210B48AF
:100BC00000F0CDFB0128F9D14021084800F0A8FB36
:100BD000002406E0054800F00EFC05490855601C9D
:100BE000C4B2102CF6DBFFF7A3FE10BD0090094045
:100BF0001C0000202DE9F04F97B002460025AB46BF
:100C0000CDF84CB0CDF850B0CDF854B0CDF858B0C8
:100C100000260027AC46A846CDF844B0CDF848B031
:100C2000A946AA46CDF840B0CDF83CB0CDF838B0D2
:100C3000CDF828B0CDF82CB0CDF830B0CDF834B028
:100C4000CDF824B0CDF820B0CDF81CB0CDF818B058
:100C5000CDF810B0CDF814B0CDF80CB0CDF808B088
:100C6000CDF804B0CDF800B0002001230C688AE173
:100C700004F0010BBBF1000F75D0D1F800B00BEA06
:100C8000030BBBF1800F18D891F805B04FEA800E26
:100C90000BFA0EFBDDF84CE04BEA0E0BCDF84CB036
:100CA00091F810B04FEA800E0BFA0EFBDDF828E049
:100CB0004BEA0E0BCDF828B080E0D1F800B00BEA7B
:100CC000030BBBF1800F23D9D1F800B00BEA030B63
:100CD000BBF5004F1CD891F805B04FF0200ECEEBBD
:100CE000800E0BFA0EFBDDF850E04BEA0E0BCDF850
:100CF00050B091F810B04FF0200ECEEB800E0BFAF2
:100D00000EFBDDF82CE04BEA0E0BCDF82CB055E0D5
:100D1000D1F800B00BEA030BBBF5004F24D9D1F892
:100D200000B00BEA030BBBF5000F1DD891F805B01E
:100D30004FF0400ECEEB800E0BFA0EFBDDF854E0C8
:100D40004BEA0E0BCDF854B091F810B04FF0400EB6
:100D5000CEEB800E0BFA0EFBDDF830E04BEA0E0B0B
:100D6000CDF830B02AE00BE1D1F800B00BEA030B6C
:100D7000BBF5000F22D9D1F800B00BEA030BBBF191
:100D8000004F1BD891F805B04FF0600ECEEB800EEF
:100D90000BFA0EFBDDF858E04BEA0E0BCDF858B01D
:100DA00091F810B04FF0600ECEEB800E0BFA0EFBF8
:100DB000DDF834E04BEA0E0BCDF834B091F804B016
:100DC0000BFA00FB4BEA050591F80FB00BFA00FB9C
:100DD000DDF838E04BEA0E0BCDF838B091F806B0EC
:100DE0000BFA00FB4BEA060691F811B00BFA00FB78
:100DF000DDF824E04BEA0E0BCDF824B091F807B0F3
:100E00000BFA00FB4BEA070791F812B00BFA00FB54
:100E1000DDF820E04BEA0E0BCDF820B091F808B0D9
:100E20000BFA00FB4BEA0C0C91F813B00BFA00FB29
:100E3000DDF81CE04BEA0E0BCDF81CB091F809B0C0
:100E40000BFA00FB4BEA080891F814B00BFA00FB10
:100E5000DDF818E04BEA0E0BCDF818B091F80BB0A6
:100E60000BFA00FB4BEA090991F816B00BFA00FBEC
:100E7000DDF80CE04BEA0E0BCDF80CB091F80CB09D
:100E80000BFA00FB4BEA0A0A91F817B00BFA00FBC9
:100E9000DDF808E04BEA0E0BCDF808B091F80DB084
:100EA0000BFA00FBDDF840E04BEA0E0BCDF840B04A
:100EB00091F818B00BFA00FBDDF804E04BEA0E0BDA
:100EC000CDF804B091F80EB00BFA00FBDDF83CE071
:100ED0004BEA0E0BCDF83CB091F819B00BFA00FBC1
:100EE000DDF800E04BEA0E0BCDF800B0D1F800B011
:100EF0000BEA030BBBF5004F18D891F80AB04FEA84
:100F0000400E0BFA0EFBDDF844E04BEA0E0BCDF879
:100F100044B091F815B04FEA400E0BFA0EFBDDF825
:100F200010E04BEA0E0BCDF810B029E0D1F800B07C
:100F30000BEA030BBBF5004F22D9D1F800B00BEA46
:100F4000030BBBF1004F1BD891F80AB04FF0200EF5
:100F5000CEEB400E0BFA0EFBDDF848E04BEA0E0B31
:100F6000CDF848B091F815B04FF0200ECEEB400E02
:100F70000BFA0EFBDDF814E04BEA0E0BCDF814B0C3
:100F80005B00401C6408002C7FF472AEDDF838B0C2
:100F9000C2F814B0DDF828B0C2F828B0DDF82CB0E3
:100FA000C2F82CB0DDF830B0C2F830B0DDF834B0A3
:100FB000C2F834B0DDF824B0C2F83CB0DDF820B09F
:100FC000C2F844B0DDF81CB0C2F84CB0DDF818B07F
:100FD000C2F854B0DDF810B0C2F860B0DDF814B05B
:100FE000C2F864B0DDF80CB0C2F86CB0DDF808B03F
:100FF000C2F874B0DDF804B0C2F87CB0DDF800B01F
:10100000C2F884B01561DDF84CB0C2F818B0DDF854
:1010100050B0C2F81CB0DDF854B0C2F820B0DDF812
:1010200058B0C2F824B096631764C2F848C0C2F83A
:101030005080DDF844B0C2F858B0DDF848B0C2F8CE
:101040005CB0C2F86890C2F870A0DDF840B0C2F899
:1010500078B0DDF83CB0C2F880B017B0BDE8F08FD2
:10106000C16070478160704700B587B00121880377
:10107000FFF725FC0B480C4908600C480090012044
:101080008DF804008DF808008DF8060000208DF81A
:10109000090003208DF80A0069460348FFF7AAFDFE
:1010A00007B000BDA1AA55850010084003FC03004D
:1010B00010B50848807818B901210748FFF7D0FF1C
:1010C00004488078012803D101210348FFF7CAFFB3
:1010D00010BD00001C0000200010084000B589B0C1
:1010E0000121C805FFF7EBFB0021174800F06CF861
:1010F00000200190ADF80800144803900020ADF8DE
:101100001000ADF81200ADF81400ADF81600ADF8FF
:101110001800ADF81A00ADF81C00ADF81E00ADF8CF
:10112000200001A9084800F0A1F85D2000F0C4F9F2
:1011300001220221044800F0C0F80121024800F019
:101140008BF809B000BD000000A00840A086010097
:1011500000B589B001210806FFF7B1FB002118484E
:1011600000F032F8174801900020ADF8080015484B
:10117000401C03900020ADF81000ADF81200ADF84F
:101180001400ADF81600ADF81800ADF81A00ADF86F
:101190001C00ADF81E00ADF8200001A9084800F0C1
:1011A00065F85E2000F088F901220221044800F071
:1011B00084F80121024800F04FF809B000BD00009A
:1011C00000B008409F86010002461C4B9A4209D19C
:1011D0001B4B186840F480306FF30F000843530432
:1011E000C3F83001174B9A420AD1154B1B1D1868E2
:1011F00040F480306FF30F0008431B07C3F834013D
:10120000114B9A420BD10E4B0833186840F48030D2
:101210006FF30F0008434FF08043C3F838010B4BC6
:101220009A420AD1064B0C33186840F480306FF3B1
:101230000F0008439304C3F83C01704700A0084026
:101240003001004000B0084000C0084000D0084015
:10125000426D8A43426570470A46C16812B141F047
:10126000010101E021F00101C160704730B50C6857
:1012700004608C8844608C6884608C89CD892C449F
:101280000D8A2C444D8A2C448D8A6319C3600C8BC3
:10129000CD8A04EB05144D8B2C448D8B62190265AD
:1012A00030BD30B50246546D956D2C4004EA010303
:1012B0000BB9002000E0012030BD10B51346826D4F
:1012C0000BB10A4300E08A43826510BD10B50346A6
:1012D000114CA3420ED1114C206840F480306FF3C2
:1012E0000F00104320F0704040EA01709C04C4F8E5
:1012F00088010FE0094C241D206840F480306FF312
:101300000F00104320F0704040EA01704FF080441D
:10131000C4F88C0110BD0000009009408801004015
:10132000426C0A434264704721B1026B42F00102F1
:10133000026304E0026B4FF6FE731A4002637047CB
:1013400000210163C16241609021816100214162FD
:101350008162816381644FF440710163704702468A
:1013600093690B400BB1012000E0002070471AB1D7
:10137000836B0B43836302E0836B8B438363704710
:101380002DE9F04703461446264608688008B6FB58
:10139000F0F7BD0907F03F0CB0000CEB851AB0FB6D
:1013A000FAF80868A8EB0000C001D1F800A0B0FB73
:1013B000FAF9B9F1020F02D90020BDE8F0875D62A9
:1013C000C3F828C0DA6A8888B1F806A040EA0A00A3
:1013D000B1F808A040EA0A00B1F80AA040EA0A0001
:1013E0000243DA621A6B4FF68070824388890243A7
:1013F0001A630120E1E70146086880B27047CAB26B
:101400000260704700B58BB001214020FFF768FAF9
:101410004FF0C070049005208DF8150001208DF864
:10142000160003208DF81A0004A92048FFF7E2FBFC
:10143000002201211E48FFF749FF1D48FFF780FFEA
:101440004FF4165000906020ADF804000820ADF86D
:1014500006000220ADF808001020ADF80A004FF495
:101460004070ADF80C00134A69461148FFF788FF39
:1014700001210F48FFF758FF6C2000280DDB00BF4B
:1014800000BF00F01F02012191404209920002F1C9
:10149000E022C2F8001100BF00BF00BF01221021EE
:1014A0000348FFF764FF0BB000BD000000100840C8
:1014B0000090094000127A0000280DDB00BF00BF39
:1014C00000F01F02012191404209920002F1E02246
:1014D000C2F8001100BF00BF7047FFF713FAFFF713
:1014E000C3FDFFF78FFFFFF725F8FFF791FAFFF72E
:1014F000F5FDFFF72DFE00BFFEE700000C15000113
:10150000000000201C000000680200010000000034
:1015100000000000000000000000000000000000CB
:081520000000000000000000C3
:040000050100022DC7
:00000001FF
